{
  "contractName": "ERC20_TimeLocker",
  "abi": [
    {
      "inputs": [
        {
          "internalType": "address",
          "name": "tokenAddress_",
          "type": "address"
        },
        {
          "internalType": "address",
          "name": "beneficiary_",
          "type": "address"
        },
        {
          "internalType": "uint256",
          "name": "durationInSeconds_",
          "type": "uint256"
        }
      ],
      "stateMutability": "nonpayable",
      "type": "constructor"
    },
    {
      "anonymous": false,
      "inputs": [
        {
          "indexed": false,
          "internalType": "address",
          "name": "beneficiary",
          "type": "address"
        },
        {
          "indexed": false,
          "internalType": "uint256",
          "name": "amount",
          "type": "uint256"
        }
      ],
      "name": "Released",
      "type": "event"
    },
    {
      "inputs": [
        {
          "internalType": "uint256",
          "name": "amount_",
          "type": "uint256"
        },
        {
          "internalType": "uint256",
          "name": "durationInSeconds_",
          "type": "uint256"
        }
      ],
      "name": "deposit",
      "outputs": [
        {
          "internalType": "bool",
          "name": "success",
          "type": "bool"
        }
      ],
      "stateMutability": "nonpayable",
      "type": "function"
    },
    {
      "inputs": [],
      "name": "release",
      "outputs": [],
      "stateMutability": "nonpayable",
      "type": "function"
    },
    {
      "inputs": [],
      "name": "token",
      "outputs": [
        {
          "internalType": "address",
          "name": "token",
          "type": "address"
        }
      ],
      "stateMutability": "view",
      "type": "function",
      "constant": true
    },
    {
      "inputs": [],
      "name": "beneficiary",
      "outputs": [
        {
          "internalType": "address",
          "name": "bnf",
          "type": "address"
        }
      ],
      "stateMutability": "view",
      "type": "function",
      "constant": true
    },
    {
      "inputs": [],
      "name": "releaseTime",
      "outputs": [
        {
          "internalType": "uint256",
          "name": "rTime",
          "type": "uint256"
        }
      ],
      "stateMutability": "view",
      "type": "function",
      "constant": true
    }
  ],
  "bytecode": "0x60806040523480156200001157600080fd5b5060405162001091380380620010918339818101604052810190620000379190620001c0565b600081116200007d576040517f08c379a000000000000000000000000000000000000000000000000000000000815260040162000074906200027d565b60405180910390fd5b826000806101000a81548173ffffffffffffffffffffffffffffffffffffffff021916908373ffffffffffffffffffffffffffffffffffffffff16021790555081600160006101000a81548173ffffffffffffffffffffffffffffffffffffffff021916908373ffffffffffffffffffffffffffffffffffffffff16021790555080426200010c9190620002ce565b6002819055505050506200032b565b600080fd5b600073ffffffffffffffffffffffffffffffffffffffff82169050919050565b60006200014d8262000120565b9050919050565b6200015f8162000140565b81146200016b57600080fd5b50565b6000815190506200017f8162000154565b92915050565b6000819050919050565b6200019a8162000185565b8114620001a657600080fd5b50565b600081519050620001ba816200018f565b92915050565b600080600060608486031215620001dc57620001db6200011b565b5b6000620001ec868287016200016e565b9350506020620001ff868287016200016e565b92505060406200021286828701620001a9565b9150509250925092565b600082825260208201905092915050565b7f496e76616c6964206475726174696f6e2070726f7669646564212e0000000000600082015250565b600062000265601b836200021c565b915062000272826200022d565b602082019050919050565b60006020820190508181036000830152620002988162000256565b9050919050565b7f4e487b7100000000000000000000000000000000000000000000000000000000600052601160045260246000fd5b6000620002db8262000185565b9150620002e88362000185565b9250827fffffffffffffffffffffffffffffffffffffffffffffffffffffffffffffffff0382111562000320576200031f6200029f565b5b828201905092915050565b610d56806200033b6000396000f3fe608060405234801561001057600080fd5b50600436106100575760003560e01c806338af3eed1461005c57806386d1a69f1461007a578063b91d400114610084578063e2bbb158146100a2578063fc0c546a146100d2575b600080fd5b6100646100f0565b604051610071919061071c565b60405180910390f35b61008261011a565b005b61008c6102b6565b6040516100999190610750565b60405180910390f35b6100bc60048036038101906100b7919061079c565b6102c0565b6040516100c991906107f7565b60405180910390f35b6100da610336565b6040516100e7919061071c565b60405180910390f35b6000600160009054906101000a900473ffffffffffffffffffffffffffffffffffffffff16905090565b60025442101561015f576040517f08c379a000000000000000000000000000000000000000000000000000000000815260040161015690610895565b60405180910390fd5b60008060009054906101000a900473ffffffffffffffffffffffffffffffffffffffff1673ffffffffffffffffffffffffffffffffffffffff166370a08231306040518263ffffffff1660e01b81526004016101bb919061071c565b602060405180830381865afa1580156101d8573d6000803e3d6000fd5b505050506040513d601f19601f820116820180604052508101906101fc91906108ca565b905060008111610241576040517f08c379a000000000000000000000000000000000000000000000000000000000815260040161023890610943565b60405180910390fd5b61027360008054906101000a900473ffffffffffffffffffffffffffffffffffffffff1661026d6100f0565b8361035f565b7fb21fb52d5749b80f3182f8c6992236b5e5576681880914484d7f4c9b062e619e61029c6100f0565b826040516102ab929190610963565b60405180910390a150565b6000600254905090565b6000808311610304576040517f08c379a00000000000000000000000000000000000000000000000000000000081526004016102fb906109d8565b60405180910390fd5b61033060008054906101000a900473ffffffffffffffffffffffffffffffffffffffff163330866103e5565b92915050565b60008060009054906101000a900473ffffffffffffffffffffffffffffffffffffffff16905090565b6103e08363a9059cbb60e01b848460405160240161037e929190610963565b604051602081830303815290604052907bffffffffffffffffffffffffffffffffffffffffffffffffffffffff19166020820180517bffffffffffffffffffffffffffffffffffffffffffffffffffffffff838183161783525050505061046e565b505050565b610468846323b872dd60e01b858585604051602401610406939291906109f8565b604051602081830303815290604052907bffffffffffffffffffffffffffffffffffffffffffffffffffffffff19166020820180517bffffffffffffffffffffffffffffffffffffffffffffffffffffffff838183161783525050505061046e565b50505050565b60006104d0826040518060400160405280602081526020017f5361666545524332303a206c6f772d6c6576656c2063616c6c206661696c65648152508573ffffffffffffffffffffffffffffffffffffffff166105359092919063ffffffff16565b905060008151111561053057808060200190518101906104f09190610a5b565b61052f576040517f08c379a000000000000000000000000000000000000000000000000000000000815260040161052690610afa565b60405180910390fd5b5b505050565b6060610544848460008561054d565b90509392505050565b606082471015610592576040517f08c379a000000000000000000000000000000000000000000000000000000000815260040161058990610b8c565b60405180910390fd5b61059b85610661565b6105da576040517f08c379a00000000000000000000000000000000000000000000000000000000081526004016105d190610bf8565b60405180910390fd5b6000808673ffffffffffffffffffffffffffffffffffffffff1685876040516106039190610c92565b60006040518083038185875af1925050503d8060008114610640576040519150601f19603f3d011682016040523d82523d6000602084013e610645565b606091505b5091509150610655828286610674565b92505050949350505050565b600080823b905060008111915050919050565b60608315610684578290506106d4565b6000835111156106975782518084602001fd5b816040517f08c379a00000000000000000000000000000000000000000000000000000000081526004016106cb9190610cfe565b60405180910390fd5b9392505050565b600073ffffffffffffffffffffffffffffffffffffffff82169050919050565b6000610706826106db565b9050919050565b610716816106fb565b82525050565b6000602082019050610731600083018461070d565b92915050565b6000819050919050565b61074a81610737565b82525050565b60006020820190506107656000830184610741565b92915050565b600080fd5b61077981610737565b811461078457600080fd5b50565b60008135905061079681610770565b92915050565b600080604083850312156107b3576107b261076b565b5b60006107c185828601610787565b92505060206107d285828601610787565b9150509250929050565b60008115159050919050565b6107f1816107dc565b82525050565b600060208201905061080c60008301846107e8565b92915050565b600082825260208201905092915050565b7f546f6f206561726c7920746f2072656c656173652074686520746f6b656e732160008201527f2e00000000000000000000000000000000000000000000000000000000000000602082015250565b600061087f602183610812565b915061088a82610823565b604082019050919050565b600060208201905081810360008301526108ae81610872565b9050919050565b6000815190506108c481610770565b92915050565b6000602082840312156108e0576108df61076b565b5b60006108ee848285016108b5565b91505092915050565b7f4e6f20746f6b656e2062616c616e636520696e206c6f636b65722e0000000000600082015250565b600061092d601b83610812565b9150610938826108f7565b602082019050919050565b6000602082019050818103600083015261095c81610920565b9050919050565b6000604082019050610978600083018561070d565b6109856020830184610741565b9392505050565b7f496e76616c696420616d6f756e74206f6620746f6b656e732e00000000000000600082015250565b60006109c2601983610812565b91506109cd8261098c565b602082019050919050565b600060208201905081810360008301526109f1816109b5565b9050919050565b6000606082019050610a0d600083018661070d565b610a1a602083018561070d565b610a276040830184610741565b949350505050565b610a38816107dc565b8114610a4357600080fd5b50565b600081519050610a5581610a2f565b92915050565b600060208284031215610a7157610a7061076b565b5b6000610a7f84828501610a46565b91505092915050565b7f5361666545524332303a204552433230206f7065726174696f6e20646964206e60008201527f6f74207375636365656400000000000000000000000000000000000000000000602082015250565b6000610ae4602a83610812565b9150610aef82610a88565b604082019050919050565b60006020820190508181036000830152610b1381610ad7565b9050919050565b7f416464726573733a20696e73756666696369656e742062616c616e636520666f60008201527f722063616c6c0000000000000000000000000000000000000000000000000000602082015250565b6000610b76602683610812565b9150610b8182610b1a565b604082019050919050565b60006020820190508181036000830152610ba581610b69565b9050919050565b7f416464726573733a2063616c6c20746f206e6f6e2d636f6e7472616374000000600082015250565b6000610be2601d83610812565b9150610bed82610bac565b602082019050919050565b60006020820190508181036000830152610c1181610bd5565b9050919050565b600081519050919050565b600081905092915050565b60005b83811015610c4c578082015181840152602081019050610c31565b83811115610c5b576000848401525b50505050565b6000610c6c82610c18565b610c768185610c23565b9350610c86818560208601610c2e565b80840191505092915050565b6000610c9e8284610c61565b915081905092915050565b600081519050919050565b6000601f19601f8301169050919050565b6000610cd082610ca9565b610cda8185610812565b9350610cea818560208601610c2e565b610cf381610cb4565b840191505092915050565b60006020820190508181036000830152610d188184610cc5565b90509291505056fea2646970667358221220e208e406f08919c79f632552de0841558ee92b722ee2a9c8f4a8f57f22e114af64736f6c634300080a0033",
  "immutableReferences": {},
  "source": "pragma solidity ^0.8.0;\r\n\r\nimport \"../node_modules/@openzeppelin/contracts/token/ERC20/utils/SafeERC20.sol\";\r\nimport \"./ERC20_MBL.sol\";\r\n\r\ncontract ERC20_TimeLocker {\r\n    address private _token;\r\n    address private _beneficiary;\r\n    uint256 private _releaseTime;\r\n\r\n    event Released(address beneficiary, uint256 amount);\r\n\r\n    modifier notEarly() {\r\n        require(\r\n            block.timestamp >= _releaseTime,\r\n            \"Too early to release the tokens!.\"\r\n        );\r\n        _;\r\n    }\r\n\r\n    constructor(\r\n        address tokenAddress_,\r\n        address beneficiary_,\r\n        uint256 durationInSeconds_\r\n    ) public {\r\n        require(durationInSeconds_ > 0, \"Invalid duration provided!.\");\r\n\r\n        _token = tokenAddress_;\r\n        _beneficiary = beneficiary_;\r\n        _releaseTime = block.timestamp + durationInSeconds_;\r\n    }\r\n\r\n    function deposit(uint256 amount_, uint256 durationInSeconds_)\r\n        public\r\n        returns (bool success)\r\n    {\r\n        require(amount_ > 0, \"Invalid amount of tokens.\");\r\n        // this contract must be allowed to transfer tokens on behalf of sender\r\n        SafeERC20.safeTransferFrom(\r\n            ERC20_MBL(_token),\r\n            msg.sender,\r\n            address(this),\r\n            amount_\r\n        );\r\n    }\r\n\r\n    function release() public notEarly {\r\n        uint256 amount = ERC20_MBL(_token).balanceOf(address(this));\r\n        require(amount > 0, \"No token balance in locker.\");\r\n\r\n        SafeERC20.safeTransfer(ERC20_MBL(_token), beneficiary(), amount);\r\n\r\n        emit Released(beneficiary(), amount);\r\n    }\r\n\r\n    function token() public view returns (address token) {\r\n        token = _token;\r\n    }\r\n\r\n    function beneficiary() public view returns (address bnf) {\r\n        bnf = _beneficiary;\r\n    }\r\n\r\n    function releaseTime() public view returns (uint256 rTime) {\r\n        rTime = _releaseTime;\r\n    }\r\n}\r\n",
  "sourcePath": "D:\\MY_WORK\\MY_GIT_STUFF\\erc20_mintable_burnable_lockable\\contracts\\ERC20_TimeLocker.sol",
  "compiler": {
    "name": "solc",
    "version": "0.8.10+commit.fc410830.Emscripten.clang"
  },
  "schemaVersion": "3.4.3",
  "updatedAt": "2021-11-25T17:17:34.113Z",
  "networkType": "ethereum",
  "devdoc": {
    "kind": "dev",
    "methods": {},
    "version": 1
  },
  "userdoc": {
    "kind": "user",
    "methods": {},
    "version": 1
  }
}